:100000007FC00000A6C00000A4C00000A2C0000085
:10001000A0C000009EC000009CC000009AC000006C
:1000200098C0000096C0000094C0000092C000007C
:1000300090C000008EC000008CC000008AC000008C
:1000400088C0000086C00000BAC60000EFC60000ED
:1000500080C000007EC000007CC000007AC00000AC
:1000600078C0000076C0000074C0000072C00000BC
:1000700070C000006EC0000088C70000BFC700004D
:1000800068C0000066C0000064C0000073656E6454
:10009000696E6700696D616765206C6F6164656496
:1000A00000656D756C61746F72243E006E6F6B003D
:1000B00061636B00656E6400706167655F73697A88
:1000C000653A002A2A2A454550524F4D20656D75E4
:1000D0006C61746F722A2A2A0A636F6D70696C658D
:1000E00064206F6E3A200032303A35353A343100B0
:1000F0004E6F76203330203230313600D501740314
:1001000011241FBECFEFD0E1DEBFCDBF11E0A0E0D4
:10011000B1E0EAEAF2E100E00BBF02C007900D9205
:10012000AE37B107D9F722E0AEE7B1E001C01D92CA
:10013000AD31B207E1F710E0C0E8D0E004C021978C
:10014000FE010E940309CE37D107C9F74DD20C94A6
:10015000530956CFCF93DF93EC01CB01BA012111A4
:100160001BC08FD687E897E09D838C838CE997E04E
:100170009983888387EA97E09B838A838AE697E05E
:100180009987888785EB97E09F838E8380EC97E043
:100190009B878A87F5D61CC02130D1F45FD787E7CB
:1001A00098E09D838C8380E998E0998388838CE92B
:1001B00098E09B838A838AE598E0998788878AEA12
:1001C00098E09F838E8385EB98E09B878A87CDD7C5
:1001D000809162008F7B809362007894DF91CF9151
:1001E0000895CF93DF93EC01CB01E881F981099564
:1001F000EC81FD818AE0DF91CF910994CF93DF9369
:10020000EC01CB01EA81FB810995EC81FD818AE05B
:10021000DF91CF9109948F929F92AF92BF92DF921C
:10022000EF92FF920F931F93CF93DF931F92CDB75F
:10023000DEB78C015B01E42EDC011696ED91FC919A
:1002400017970995892B79F1D12C20E3F12C8D2C6E
:10025000912C2A3061F4F401EA0DFB1D1082D801C3
:100260001A96ED91FC911B97099581E01DC02D30E8
:1002700091F38E149F047CF7D8011696ED91FC91B2
:100280001797298309952981892B19F3D801189685
:10029000ED91FC9119970995282FF501E80DF91DAD
:1002A0008083D394D4CF80E00F90DF91CF911F91C2
:1002B0000F91FF90EF90DF90BF90AF909F908F9045
:1002C00008950F931F93CF93DF93CDB7DEB72A978F
:1002D0000FB6F894DEBF0FBECDBF8C01CB0150E04E
:1002E000BE016F5F7F4FACD7D801ED91FC91CE017D
:1002F00001960995D8011496ED91FC9115978AE025
:1003000009952A960FB6F894DEBF0FBECDBFDF91D8
:10031000CF911F910F910895CF92DF92EF92FF92AC
:100320000F931F93CF93DF936C017B018B01C42F3D
:10033000D0E098012E193F092C173D0754F4D6013F
:100340001496ED91FC911597D8018D918D01099529
:10035000F0CFDF91CF911F910F91FF90EF90DF9041
:10036000CF90089587B38C6087BBC39A08950F938D
:100370001F93CF93DF938B01C0E0D0E0E0910001A9
:10038000F0910101EC0FFD1F8491D8011496ED91BD
:10039000FC91159709952196C115B0E8DB0771F717
:1003A000DF91CF911F910F9108958091000190915D
:1003B0000101A0910201B0910301AC01BD015058AF
:1003C0006F4F7F4F4093820150938301609384016C
:1003D00070938501119680937E0190937F01A09385
:1003E0008001B09381010895C79A0895C69A08952F
:1003F000C59A08951ABA1BBA84B384BB85B385BB6A
:10040000109261001092620088B38F7388BB86B32C
:100410008F7386BB87B38F7387BB089577FD0AC040
:10042000DC01ED91FC91119760831296ED91FC91A6
:10043000139770830895CF93DF9300D0CDB7DEB7C5
:1004400089839A83D1DFD2DFD3DF109261001ABA99
:1004500014BA60E070E089819A810F900F90DF916B
:10046000CF91DCCF2BE330E0DC0111963C932E934F
:1004700025E330E013963C932E931297E2E6F0E0EA
:100480001596FC93EE93149720E230E017963C9378
:100490002E9316972FEF2ABB24B32F6724BB27B3C5
:1004A000206E27BB109261001082C5CF2BE330E095
:1004B000DC0111963C932E9325E330E013963C9398
:1004C0002E931297E2E6F0E01596FC93EE931497C4
:1004D00020E230E017963C932E9316972FEF2ABB1D
:1004E00024B32F6724BB27B32E6E27BB1092610065
:1004F0001082A1CFCF93DF93EC0176DF77DF78DF37
:10050000109261009FEF9ABB94BB60E070E0CE0157
:10051000DF91CF9183CFCF92DF92EF92FF920F9333
:100520001F93CF93DF938C016B017A018FEF809340
:1005300061008ABB84BBC0E0D0E0CE15DF05B1F01E
:10054000BE016C0D7D1DC80169DFE0910001F091D5
:100550000101EC0FFD1F8491F801A481B5818C93FA
:10056000C798C59841DF44DF2196E7CFC801DF91E6
:10057000CF911F910F91FF90EF90DF90CF905BCFC5
:10058000CF92DF92EF92FF920F931F93CF93DF935F
:100590008C01EB017A016901ADDFC698EC0EFD1EFE
:1005A000CE15DF0599F0BE01C80138DFC798D80124
:1005B0001696ED91FC9117978081D6011496ED91D6
:1005C000FC911597099510DF2196EACFC801DF91BC
:1005D000CF911F910F91FF90EF90DF90CF902BCF95
:1005E00081B3806E81BB0895CF93DF93CDB7DEB723
:1005F000C854D1090FB6F894DEBF0FBECDBF21E0BD
:1006000040E052EC61E070E0CE01C796A3DDBE0190
:10061000695C7F4FCE018A9625DF00910001109121
:100620000101209102013091030140E050E860E0B7
:1006300070E0CE018A966FDFCE01895B9F4F92DE1C
:10064000CE018C5B9F4FCCDFAE014C5B5F4FBE0198
:10065000695C7F4FCE01019658D0CE010196A9D09A
:1006600018A5969AE0918601F091870184E091E0C7
:1006700009957894C12CD12C760180E1882E87E2EF
:10068000982EA12CB12C00E48FEFC81AD80AE80AE2
:10069000F80AC701B601A50194017FD5672B682B25
:1006A000692B31F482B3805882BB82B3802782BB2E
:1006B000412FBE01625E7F4FCE01C796ACDD88231D
:1006C00079F0E0918601F0918701CE014E9609956F
:1006D000CE0101968DD22396EEADFFAD23970995FD
:1006E0008FE18A95F1F7D0CF20E040E052EC61E055
:1006F00070E086E891E02ECD98E088E10FB6F8949E
:10070000A89581BD0FBE91BD0895EF92FF920F9302
:100710001F93CF93DF93EC017B018A0123DECE018F
:100720000496C4DE8AE090E098A78FA3FB82EA8259
:100730001A8B098BDF91CF911F910F91FF90EF9052
:1007400008950F931F93CF93DF938B01EC016D9668
:100750006DE070E0CE0160D5009721F46AE070E0B2
:10076000CE015AD5FC011082B801CE0160D521E03E
:10077000892B09F020E0822FDF91CF911F910F91FB
:100780000895CF93DF93EC01C39AC398049632DEA9
:100790006AE071E08A819B81DF91CF9122CD98B38D
:1007A00088E0892788BB0895FC01628173814396A4
:1007B000DECDCF93DF93EC01EA81FB810280F381F0
:1007C000E02D83EC90E00995EA81FB810280F381C2
:1007D000E02D80EF90E00995EA81FB810190F081A6
:1007E000E02D84E191E00995EA81FB810280F381AB
:1007F000E02D87EE90E00995EA81FB810190F08180
:10080000E02D84E191E00995EA81FB810280F3818A
:10081000E02D88EB90E009954AE060E071E08A8184
:100820009B81DF91CF914DCDAF92BF92CF92DF925E
:10083000EF92FF920F931F93CF93DF936C017B0195
:100840005A0120E030E02A153B0501F18701020F33
:10085000131FE801CE19DF09D6011296ED91FC9124
:1008600013970680F781E02D0995892B69F0D60151
:100870001296ED91FC9113970084F185E02D099576
:10088000F80181938F01E5CF9E01DDCFDF91CF91FC
:100890001F910F91FF90EF90DF90CF90BF90AF909E
:1008A0000895FB01460F571F80E090E0E417F5071D
:1008B000D9F021919227092E0294202D2F702927FB
:1008C000392F3025330F307E2327302D3927307FC5
:1008D0003695092E000C331F9695969596959F7127
:1008E00093279827822FE2CF08958F929F92AF92FD
:1008F000BF92CF92DF92EF92FF920F931F93CF930D
:10090000DF93CDB7DEB7C250D4400FB6F894DEBF48
:100910000FBECDBF7C014A015B0142E054E0BE0145
:100920006F5F7F4F81DFCF5FDB4F8881C150D44045
:10093000CE5FDB4F0881C250D44010E0102F00275B
:10094000080F111D40E054E0BE016F5F7F4FC701EB
:10095000A8DF08171907F9F4C12CD12C7601959A54
:1009600041E050E04C0F5D1F4C0D5D1DC701B6010D
:10097000680D791D8A1D9B1D0E9400F095988FEFD0
:10098000D81AE80AF80AC11485E0D806E104F1048F
:1009900031F780E001C081E0CE5FDB4F0FB6F89405
:1009A000DEBF0FBECDBFDF91CF911F910F91FF90A2
:1009B000EF90DF90CF90BF90AF909F908F90089571
:1009C0004F925F926F927F928F929F92AF92BF925F
:1009D000CF92DF92EF92FF920F931F93CF93DF930B
:1009E00000D01F92CDB7DEB75C014B011A821B828B
:1009F000412C512C320100E010E0E42EF12CC22EEB
:100A0000D12C0E151F0584F5C801B601B3D3F4012E
:100A1000E60FF71FE081F0E002C0F595E7958A95B3
:100A2000E2F7E0FF1AC0A895098343E0BE016F5FBB
:100A30007F4FF501828193816FDC409100015091DD
:100A400001016091020170910301440D551D661D65
:100A5000771DC5014ADF8111E7CF0F5F1F4FF4E01B
:100A60005F0E611C711CCDCF0F900F900F90DF9126
:100A7000CF911F910F91FF90EF90DF90CF90BF909B
:100A8000AF909F908F907F906F905F904F90089560
:100A90008F929F92AF92BF92CF92DF92EF92FF928E
:100AA0000F931F93CF93DF9300D000D0CDB7DEB765
:100AB0007C0119821A821B821C82DC011296ED9144
:100AC000FC9113970190F081E02D86E191E009956A
:100AD000D7011296ED91FC9113970190F081E02DD2
:100AE0008BE191E009959DE088E10FB6F894A89517
:100AF00081BD0FBE91BD812C912C5401C12CD12CF4
:100B000000E040910001509101016091020170915B
:100B10000301480D591D6A1D7B1DC701E6DE182F14
:100B2000D7011296ED91FC9113970480F581E02D89
:100B30008EE20995111101E0F60183E0F695E79543
:100B40008A95E1F781E090E08C0F9D1FE80FF91F77
:100B5000212FC6018770992701C0220F8A95EAF7D5
:100B60008081282B2083A8959FEFC91AD90AA4E079
:100B70009A0EA11CB11CB0E2CB16D10409F0C1CF72
:100B8000002391F0D7011296ED91FC91139702800A
:100B9000F381E02D8CEA90E0099528E040E2BE0167
:100BA0006F5F7F4FC7010CDFD7011296ED91FC916B
:100BB00013970280F381E02D80EB90E009950FB64A
:100BC000F894A89581B5886181BD11BC0FBE0F90C6
:100BD0000F900F900F90DF91CF911F910F91FF9089
:100BE000EF90DF90CF90BF90AF909F908F9008953F
:100BF0000F931F93CF93DF93EC0140E061E271E02C
:100C0000A0DD882319F0CE01D4DDD0C040E063E23E
:100C100071E0CE0196DD8823B1F0C39AC29ACE016D
:100C200037DF009100011091010120910201309104
:100C3000030140E050E860E070E0CE0104966BDC18
:100C4000C398C298B3C040E069E271E0CE0179DD9B
:100C5000882389F0EA81FB810280F381E02D8CE812
:100C600090E009958FEF93EB0197F1F700C000003A
:100C7000CE019ADD9BC040E061E371E0CE0161DD11
:100C8000882339F0C29A61E371E08A819B81A9DAF5
:100C90008DC040E066E371E0CE0153DD882319F09A
:100CA000CE016FDD83C040E064E071E0CE0149DD3C
:100CB000882311F021DD7AC040E06EE371E0CE01BF
:100CC00040DD882349F0009100011091010120913D
:100CD0000201309103010FC040E067E471E0CE01F2
:100CE00030DD8823A9F000918201109183012091C9
:100CF00084013091850140E050E860E070E0CE0171
:100D0000049609DC64E970E08A819B8177DA4EC041
:100D100040E060E571E0CE0114DD882349F00091E8
:100D20007E0110917F012091800130918101E3CFFC
:100D300040E069E571E0CE0104DD8823C1F0EA817D
:100D4000FB810280F381E02D8CE890E009958FEF24
:100D500093EB0197F1F700C000002A813B8140E04E
:100D600050E860E070E0CE0104960ADC1FC040E06D
:100D700060E671E0CE01E5DC2A813B81882391F0B9
:100D800065E671E0C9012DDACE0109DD62E771E0A7
:100D90008A819B8126DA66B370E042E08A819B817A
:100DA00090DA04C061EA70E0C90104C064EB70E04D
:100DB0008A819B81DF91CF911F910F911FCA1F9252
:100DC0000F920FB60F9211240BB60F922F933F93F1
:100DD0004F935F938F939F93EF93FF932BB13CB10E
:100DE00028718091DA0190E001968F7199274091E6
:100DF000D90150E08417950739F08093DA01FC019E
:100E0000E352FE4F308301C022E02093D801FF91CE
:100E1000EF919F918F915F914F913F912F910F9003
:100E20000BBE0F900FBE0F901F9018951F920F9240
:100E30000FB60F9211240BB60F928F939F93EF93DF
:100E4000FF939091DC018091DB01981771F0809104
:100E5000DB0190E001968F7199278093DB01FC0103
:100E6000E350FE4F80818CB901C05598FF91EF91FE
:100E70009F918F910F900BBE0F900FBE0F901F9000
:100E800018959B01AC0160E074E981E190E085D1A7
:100E9000BA01A90141505109610971091092DC019F
:100EA0001092DB011092DA011092D90157FF05C0B0
:100EB00082E08BB95F7766277727BB27A72F962F0E
:100EC000852F8093900049B988E98AB986E080939C
:100ED000950008959091DA018091D9019817A1F0B9
:100EE0008091D90190E001968F7199278093D90163
:100EF000FC01E352FE4F20818091D80190E0982FB1
:100F00008827820F911D089580E091E00895209137
:100F1000DC0130E02F5F3F4F2F7133274091DB0121
:100F200050E024173507D1F3F901E350FE4F8083D9
:100F30002093DC01559A0895CF93DF93EC018991BA
:100F4000882311F0E4DFFBCFDF91CF910895CF9399
:100F5000DF93FC018491EF012196882319F0D7DFFC
:100F6000FE01F8CFDF91CF9108958091DA012091B1
:100F7000D90190E08096821B91098F71992708957D
:100F80008091D9018093DA0108951F920F920FB6D4
:100F90000F9211240BB60F922F933F934F935F93B1
:100FA0008F939F93EF93FF9320919B0030919C0030
:100FB00028718091950190E001968F719927409159
:100FC000940150E08417950739F080939501FC0156
:100FD000E856FE4F308301C022E020939301FF9139
:100FE000EF919F918F915F914F913F912F910F9032
:100FF0000BBE0F900FBE0F901F9018951F920F926F
:101000000FB60F9211240BB60F928F939F93EF930D
:10101000FF939091970180919601981779F08091B4
:10102000960190E001968F71992780939601FC01BB
:10103000E854FE4F808180939C0005C080919A0007
:101040008F7D80939A00FF91EF919F918F910F90E8
:101050000BBE0F900FBE0F901F9018959B01AC0117
:1010600060E074E981E190E098D0BA01A9014150B3
:10107000510961097109109297011092960110921D
:1010800095011092940157FF06C082E080939B0067
:101090005F7766277727BB27A72F962F852F80930B
:1010A00098004093990088E980939A0086E08093A5
:1010B0009D00089590919501809194019817A1F059
:1010C0008091940190E001968F719927809394010B
:1010D000FC01E856FE4F20818091930190E0982F0B
:1010E0008827820F911D089580E091E00895209156
:1010F000970130E02F5F3F4F2F71332740919601CA
:1011000050E024173507D1F3F901E854FE4F8083EE
:101110002093970180919A00806280939A000895AD
:10112000CF93DF93EC018991882311F0E0DFFBCFAF
:101130008AE0DF91CF91DBCFCF93DF93FC018491E5
:10114000EF012196882319F0D2DFFE01F8CFDF915D
:10115000CF910895809195012091940190E080961F
:10116000821B91098F719927089580919401809332
:101170009501089597FB072E16F4009406D077FD8D
:1011800008D02DD007FC05D03EF4909581959F4F57
:101190000895709561957F4F0895A1E21A2EAA1BBC
:1011A000BB1BFD010DC0AA1FBB1FEE1FFF1FA21717
:1011B000B307E407F50720F0A21BB30BE40BF50B14
:1011C000661F771F881F991F1A9469F7609570959D
:1011D000809590959B01AC01BD01CF010895AA1B9C
:1011E000BB1B51E107C0AA1FBB1FA617B70710F012
:1011F000A61BB70B881F991F5A95A9F78095909544
:10120000BC01CD010895EE0FFF1F0024001C0BBE92
:101210000790F691E02D0994FC018191861721F049
:101220008823D9F7992708953197CF010895FB01B5
:10123000DC018D91019080190110D9F3990B08956B
:101240004532510518F4423008F004C0FB01108209
:10125000CB010895BB27FB015527AA27880F991FAB
:10126000AA1FA41710F0A41B83955051B9F7A05DD5
:10127000AA3308F0A95DA193009779F7B111B19352
:101280001192CB0100C0DC01FC01672F7191772323
:10129000E1F7329704C07C916D9370836291AE1731
:0A12A000BF07C8F30895F894FFCFCC
:1012AA0000600000726573657400656D756C617429
:1012BA00696E67000A0074657374007374617274EE
:1012CA00006300777269746500666C6173685264C2
:1012DA000043654F6E00656D756C617465006C6FD7
:1012EA0061645F696D31006C6F61645F696D3200C2
:1012FA006C6F61645F696D33007372616D52640073
:10130A0070696E620070696E206368616E67696EEB
:0E131A00670070696E206368616E676564002D
:020000021000EC
:10E00000CF92DF92EF92FF92CF93DF93AFB7F89466
:10E010002091680020FDFCCFE199FECF23E0FB01B9
:10E0200080935B0020936800E8959A0133956B011B
:10E030007C01B1E0EA01E8814E5F5F4F2196F881F3
:10E04000CF2FD0E0DC2FCC27CE0FD11DE091680080
:10E05000E0FDFCCFE199FECF0E01F601E0925B00FE
:10E06000B0936800E8951124D2E0CD0ED11CE11CDC
:10E07000F11C42175307F1F62091680020FDFCCFF8
:10E08000E199FECF25E0FB0180935B0020936800BF
:10E09000E8958091680080FDFCCFE199FECF81E199
:10E0A00080936800E895AFBFDF91CF91FF90EF902C
:06E0B000DF90CF900895FF
:00000001FF
