:100000006EC0000093C0000091C000008FC00000CF
:100010008DC000008BC0000089C0000087C00000B8
:1000200085C0000083C0000081C000007FC00000C8
:100030007DC000007BC0000079C0000077C00000D8
:1000400075C0000073C00000AAC20000DFC200003B
:100050006DC000006BC0000069C0000067C00000F8
:1000600065C0000063C0000061C000005FC0000008
:100070005DC000005BC000006FC30000A6C30000AD
:1000800055C0000053C0000051C00000656D756C84
:1000900061746F72243E0A0074696D656F75740A2D
:1000A00000706167655F73697A653A002A2A2A459C
:1000B0004550524F4D20656D756C61746F722A2AE0
:1000C0002A0A636F6D70696C6564206F6E3A200058
:1000D0005365702033302032303136001002112445
:1000E0001FBECFEFD0E1DEBFCDBF11E0A0E0B1E099
:1000F000E2E3FAE000E00BBF02C007900D92A631E8
:10010000B107D9F722E0A6E1B1E001C01D92A43AFF
:10011000B207E1F710E0CFE6D0E003C02197FE017F
:1001200029D4CE36D107D1F7F7D081C469CFCF9388
:10013000DF93EC01CB0141111BC093D28EE693E01B
:100140009983888383E893E09B838A838EE893E096
:100150009D838C8381E593E0998788878CE993E080
:100160009F838E8387EA93E09B878A87F0D21CC0A7
:100170004130D1F45AD385E594E0998388838EE6A3
:1001800094E09B838A838AE794E09D838C8388E351
:1001900094E09987888788E894E09F838E8383E939
:1001A00094E09B878A87BFD3809162008F7B809386
:1001B00062007894DF91CF9108958F929F92AF92D1
:1001C000BF92DF92EF92FF920F931F93CF93DF9333
:1001D0001F92CDB7DEB78C015B01E42EDC011696D1
:1001E000ED91FC9117970995892B79F1D12C20E39A
:1001F000F12C8D2C912C2A3061F4F401EA0DFB1DB9
:100200001082D8011A96ED91FC911B97099581E017
:100210001DC02D3091F38E149F047CF7D8011696E3
:10022000ED91FC911797298309952981892B19F361
:10023000D8011896ED91FC9119970995282FF50191
:10024000E80DF91D8083D394D4CF80E00F90DF9127
:10025000CF911F910F91FF90EF90DF90BF90AF90E3
:100260009F908F9008950F931F93CF93DF93CDB7F7
:10027000DEB72A970FB6F894DEBF0FBECDBF8C0154
:10028000CB0150E0BE016F5F7F4F94D3D80112962F
:10029000ED91FC911397CE01019609952A960FB620
:1002A000F894DEBF0FBECDBFDF91CF911F910F91AC
:1002B000089587B38C6087BBC39A0895C79A089541
:1002C000C59A0895FBDFC69AFBDF1092610008957E
:1002D0002BE330E0DC0111963C932E9325E330E0D4
:1002E00013963C932E931297E2E6F0E01596FC935A
:1002F000EE93149720E230E017963C932E931697D6
:100300002FEF2ABB24B32F6724BB27B3206E27BB54
:10031000109261001082D6CFCF93DF93CDB7DEB7B6
:10032000C454D1090FB6F894DEBF0FBECDBFEAE1C9
:10033000F1E080E090E081930196811521E0920741
:10034000D1F781B3806E81BB41E060E071EECE01F8
:100350008A96EDDE40E060E875E2CE014D96E7DE7C
:10036000CE01C796B5DFCE018D5B9F4FA2DFBE01E8
:10037000665D7F4FCE010F965CD0BE01635E7F4FFE
:10038000CE01019656D00B8D789492B380E28927E6
:1003900082BBEF8DF8A180E091E0099580E4F82E12
:1003A00010E28FEF99E628E1815090402040E1F77C
:1003B00000C0000082B3805882BB402FBE016F5E38
:1003C0007F4FCE018A96F9DE882379F082B38F259C
:1003D00082BBCE010F96C6D08FE39CE90197F1F75F
:1003E00000C00000ECA9FDA909954D85BE016D5F17
:1003F0007F4FCE018A96E1DE882399F282B381276E
:1004000082BB8FE39CE90197F1F700C00000EF8DFC
:10041000F8A180E091E00995EFA1F8A50995C1CF79
:1004200010921601109217011092180110921901E2
:1004300008952AE030E0FC013587248771836083CA
:100440000895EF92FF920F931F93CF93DF937C0158
:10045000EB018C010E5F1F4F211105C050E0B80168
:10046000CE019AD20CC0B801CE018DD24AE0BC01B7
:10047000F70180819181F7DEB801CE0184D221E0BD
:10048000892B09F020E0822FDF91CF911F910F91EE
:10049000FF90EF900895CF93DF93EC01E881F9810D
:1004A0000480F581E02D8CEA90E00995E881F981DE
:1004B0000480F581E02D80ED90E00995E881F981D7
:1004C0000280F381E02D84E191E00995E881F981D2
:1004D0000480F581E02D81EA90E009954AE060E032
:1004E00071E088819981DF91CF91BDCECF92DF926B
:1004F000EF92FF920F931F93CF93DF93EC016B0169
:1005000000E010E07C0182E0E80EF11C4C85B701B0
:100510008881998152DE43E050E0B7018FE091E09D
:100520003BD2892BA9F08FE99FE00197F1F700C03A
:1005300000000F5F1F4FC016D10640F7E881F98118
:100540000480F581E02D88E990E0099580E001C004
:1005500081E0DF91CF911F910F91FF90EF90DF909D
:10056000CF900895CF93DF93EC0120E041E063E169
:1005700071E067DFCE018FDF8A81813631F468E870
:1005800073E1CE01DF91CF91B1CFE881F981048091
:10059000F581E02D8CE890E0DF91CF9109941F92D6
:1005A0000F920FB60F9211240BB60F922F933F9319
:1005B0004F935F938F939F93EF93FF932BB13CB136
:1005C00028718091610290E001968F719927409186
:1005D000600250E08417950739F080936102FC01B6
:1005E000EC59FD4F308301C022E020935F02FF9160
:1005F000EF919F918F915F914F913F912F910F902C
:100600000BBE0F900FBE0F901F9018951F920F9268
:100610000FB60F9211240BB60F928F939F93EF9307
:10062000FF939091630280916202981771F080911C
:10063000620290E001968F71992780936202FC011B
:10064000EC57FD4F80818CB901C05598FF91EF9117
:100650009F918F910F900BBE0F900FBE0F901F9028
:1006600018959C0140E050E060E472E48FE090E077
:100670005FD12150310910926302109262021092F0
:1006800061021092600237FF03C082E08BB93F77AE
:100690003093900029B988E98AB986E08093950063
:1006A000089590916102809160029817A1F0809165
:1006B000600290E001968F71992780936002FC019F
:1006C000EC59FD4F208180915F0290E0982F8827A0
:1006D000820F911D089580E091E0089520916302BA
:1006E00030E02F5F3F4F2F7133274091620250E07F
:1006F00024173507D1F3F901EC57FD4F8083209380
:100700006302559A0895CF93DF93EC018991882372
:1007100011F0E4DFFBCFDF91CF910895CF93DF930A
:10072000FC018491EF012196882319F0D7DFFE01A7
:10073000F8CFDF91CF9108958091610220916002FE
:1007400090E08096821B91098F719927089580917E
:1007500060028093610208951F920F920FB60F926C
:1007600011240BB60F922F933F934F935F938F9368
:100770009F93EF93FF9320919B0030919C002871F1
:1007800080911C0290E001968F71992740911B0285
:1007900050E08417950739F080931C02FC01E15E5C
:1007A000FD4F308301C022E020931A02FF91EF91A8
:1007B0009F918F915F914F913F912F910F900BBE21
:1007C0000F900FBE0F901F9018951F920F920FB6AB
:1007D0000F9211240BB60F928F939F93EF93FF9379
:1007E00090911E0280911D02981779F080911D0250
:1007F00090E001968F71992780931D02FC01E15CC6
:10080000FD4F808180939C0005C080919A008F7D70
:1008100080939A00FF91EF919F918F910F900BBE63
:100820000F900FBE0F901F9018959C0140E050E074
:1008300060E472E48FE090E07BD0215031091092A7
:100840001E0210921D0210921C0210921B0237FF12
:1008500004C082E080939B003F7730939800209300
:10086000990088E980939A0086E080939D0008951E
:1008700090911C0280911B029817A1F080911B029D
:1008800090E001968F71992780931B02FC01E15E35
:10089000FD4F208180911A0290E0982F8827820FC7
:1008A000911D089580E091E0089520911E0230E0AE
:1008B0002F5F3F4F2F71332740911D0250E02417C7
:1008C0003507D1F3F901E15CFD4F808320931E02CF
:1008D00080919A00806280939A000895CF93DF936D
:1008E000EC018991882311F0E0DFFBCF8AE0DF91F2
:1008F000CF91DBCFCF93DF93FC018491EF01219661
:10090000882319F0D2DFFE01F8CFDF91CF9108954F
:1009100080911C0220911B0290E08096821B91091D
:100920008F719927089580911B0280931C0208956E
:10093000A1E21A2EAA1BBB1BFD010DC0AA1FBB1FE3
:10094000EE1FFF1FA217B307E407F50720F0A21B55
:10095000B30BE40BF50B661F771F881F991F1A94C2
:1009600069F760957095809590959B01AC01BD01EC
:10097000CF010895EE0FFF1F0024001C0BBE07904F
:10098000F691E02D0994FB01DC018D910590801911
:100990000110D9F3990B0895FB01DC01415050403F
:1009A00030F08D910190801919F40020B9F7881B5F
:1009B000990B08954532510518F4423008F004C0EF
:1009C000FB011082CB010895BB274A3031F49923F3
:1009D00022F4BDE2909581959F4F01C0BB27FB019A
:1009E0005527AA27880F991FAA1FA41710F0A41B28
:1009F00083955051B9F7A05DAA3308F0A95DA19382
:100A0000009779F7B111B1931192CB0100C0DC01CD
:100A1000FC01672F71917723E1F7329704C07C9135
:100A20006D9370836291AE17BF07C8F30895F89471
:020A3000FFCFF6
:100A32004920616D20626C7565746F6F7468006126
:060A4200636B00630A0073
:00000001FF
